{
  "contractName": "FileEncryptionRegistry",
  "abi": [
    {
      "inputs": [],
      "stateMutability": "nonpayable",
      "type": "constructor"
    },
    {
      "anonymous": false,
      "inputs": [
        {
          "indexed": true,
          "internalType": "bytes32",
          "name": "fileId",
          "type": "bytes32"
        }
      ],
      "name": "FileArchived",
      "type": "event"
    },
    {
      "anonymous": false,
      "inputs": [
        {
          "indexed": true,
          "internalType": "bytes32",
          "name": "fileId",
          "type": "bytes32"
        },
        {
          "indexed": true,
          "internalType": "address",
          "name": "uploader",
          "type": "address"
        },
        {
          "indexed": false,
          "internalType": "string",
          "name": "fileName",
          "type": "string"
        },
        {
          "indexed": false,
          "internalType": "string",
          "name": "encryptionKey",
          "type": "string"
        }
      ],
      "name": "FileRegistered",
      "type": "event"
    },
    {
      "anonymous": false,
      "inputs": [
        {
          "indexed": true,
          "internalType": "address",
          "name": "previousOwner",
          "type": "address"
        },
        {
          "indexed": true,
          "internalType": "address",
          "name": "newOwner",
          "type": "address"
        }
      ],
      "name": "OwnershipTransferred",
      "type": "event"
    },
    {
      "anonymous": false,
      "inputs": [
        {
          "indexed": true,
          "internalType": "address",
          "name": "uploader",
          "type": "address"
        }
      ],
      "name": "UploaderAdded",
      "type": "event"
    },
    {
      "anonymous": false,
      "inputs": [
        {
          "indexed": true,
          "internalType": "address",
          "name": "uploader",
          "type": "address"
        }
      ],
      "name": "UploaderRemoved",
      "type": "event"
    },
    {
      "inputs": [],
      "name": "owner",
      "outputs": [
        {
          "internalType": "address",
          "name": "",
          "type": "address"
        }
      ],
      "stateMutability": "view",
      "type": "function",
      "constant": true
    },
    {
      "inputs": [],
      "name": "totalFiles",
      "outputs": [
        {
          "internalType": "uint256",
          "name": "",
          "type": "uint256"
        }
      ],
      "stateMutability": "view",
      "type": "function",
      "constant": true
    },
    {
      "inputs": [
        {
          "internalType": "address",
          "name": "",
          "type": "address"
        }
      ],
      "name": "userProfiles",
      "outputs": [
        {
          "internalType": "bool",
          "name": "isUploader",
          "type": "bool"
        },
        {
          "internalType": "uint256",
          "name": "totalFilesUploaded",
          "type": "uint256"
        }
      ],
      "stateMutability": "view",
      "type": "function",
      "constant": true
    },
    {
      "inputs": [
        {
          "internalType": "address",
          "name": "newOwner",
          "type": "address"
        }
      ],
      "name": "transferOwnership",
      "outputs": [],
      "stateMutability": "nonpayable",
      "type": "function"
    },
    {
      "inputs": [
        {
          "internalType": "address",
          "name": "uploaderAddress",
          "type": "address"
        }
      ],
      "name": "addUploader",
      "outputs": [],
      "stateMutability": "nonpayable",
      "type": "function"
    },
    {
      "inputs": [
        {
          "internalType": "address",
          "name": "uploaderAddress",
          "type": "address"
        }
      ],
      "name": "removeUploader",
      "outputs": [],
      "stateMutability": "nonpayable",
      "type": "function"
    },
    {
      "inputs": [
        {
          "internalType": "string",
          "name": "_fileName",
          "type": "string"
        },
        {
          "internalType": "string",
          "name": "_encryptionKey",
          "type": "string"
        }
      ],
      "name": "registerFile",
      "outputs": [
        {
          "internalType": "bytes32",
          "name": "",
          "type": "bytes32"
        }
      ],
      "stateMutability": "nonpayable",
      "type": "function"
    },
    {
      "inputs": [
        {
          "internalType": "bytes32",
          "name": "_fileId",
          "type": "bytes32"
        }
      ],
      "name": "archiveFile",
      "outputs": [],
      "stateMutability": "nonpayable",
      "type": "function"
    },
    {
      "inputs": [
        {
          "internalType": "bytes32",
          "name": "_fileId",
          "type": "bytes32"
        }
      ],
      "name": "getFileMetadata",
      "outputs": [
        {
          "components": [
            {
              "internalType": "address",
              "name": "uploader",
              "type": "address"
            },
            {
              "internalType": "uint256",
              "name": "uploadTimestamp",
              "type": "uint256"
            },
            {
              "internalType": "string",
              "name": "fileName",
              "type": "string"
            },
            {
              "internalType": "string",
              "name": "encryptionKey",
              "type": "string"
            },
            {
              "internalType": "bool",
              "name": "isActive",
              "type": "bool"
            }
          ],
          "internalType": "struct FileEncryptionRegistry.FileMetadata",
          "name": "",
          "type": "tuple"
        }
      ],
      "stateMutability": "view",
      "type": "function",
      "constant": true
    },
    {
      "inputs": [],
      "name": "getUserFiles",
      "outputs": [
        {
          "internalType": "bytes32[]",
          "name": "",
          "type": "bytes32[]"
        }
      ],
      "stateMutability": "view",
      "type": "function",
      "constant": true
    },
    {
      "inputs": [
        {
          "internalType": "address",
          "name": "_address",
          "type": "address"
        }
      ],
      "name": "isUploader",
      "outputs": [
        {
          "internalType": "bool",
          "name": "",
          "type": "bool"
        }
      ],
      "stateMutability": "view",
      "type": "function",
      "constant": true
    },
    {
      "inputs": [
        {
          "internalType": "bytes32",
          "name": "_fileId",
          "type": "bytes32"
        }
      ],
      "name": "getEncryptionKey",
      "outputs": [
        {
          "internalType": "string",
          "name": "",
          "type": "string"
        }
      ],
      "stateMutability": "view",
      "type": "function",
      "constant": true
    }
  ],
  "bytecode": "0x608060405234801561001057600080fd5b50600080546001600160a01b03191633908117825560408051808201825260018082526020808301868152948652819052919093209251835490151560ff19909116178355905191015561104f806100696000396000f3fe608060405234801561001057600080fd5b50600436106100b45760003560e01c80636db5426a116100715780636db5426a146101535780638da5cb5b1461017357806392cf055714610188578063a2036faf1461019d578063ed791724146101bd578063f2fde38b146101d0576100b4565b806311942989146100b95780632d0a304a146100d7578063332d56d7146100ec57806339a883071461010d57806348bbde5d1461012057806365f3537114610133575b600080fd5b6100c16101e3565b6040516100ce9190610c65565b60405180910390f35b6100ea6100e5366004610b68565b610244565b005b6100ff6100fa366004610b3a565b6102f8565b6040516100ce929190610cb4565b6100ea61011b366004610b3a565b610317565b6100ea61012e366004610b3a565b6103c2565b610146610141366004610b68565b610474565b6040516100ce9190610f03565b610166610161366004610b3a565b61061e565b6040516100ce9190610ca9565b61017b61063c565b6040516100ce9190610c51565b61019061064b565b6040516100ce9190610cc4565b6101b06101ab366004610b68565b610651565b6040516100ce9190610ccd565b6101906101cb366004610b80565b610726565b6100ea6101de366004610b3a565b61093b565b3360009081526003602090815260409182902080548351818402810184019094528084526060939283018282801561023a57602002820191906000526020600020905b815481526020019060010190808311610226575b5050505050905090565b600081815260026020526040902080546001600160a01b031633148061027457506000546001600160a01b031633145b6102995760405162461bcd60e51b815260040161029090610d0e565b60405180910390fd5b600481015460ff166102bd5760405162461bcd60e51b815260040161029090610ed4565b60048101805460ff1916905560405182907fcd4ef02f39239652e86ed1ae64bad7684e5447b20c7ee94ba7390e7cb3bb665990600090a25050565b6001602081905260009182526040909120805491015460ff9091169082565b6000546001600160a01b031633146103415760405162461bcd60e51b815260040161029090610d45565b6001600160a01b03811660009081526001602052604090205460ff166103795760405162461bcd60e51b815260040161029090610db3565b6001600160a01b038116600081815260016020526040808220805460ff19169055517f861410af945cb28019ed2329ed3a2f839d1693d69fbbd569522dafade784e7d09190a250565b6000546001600160a01b031633146103ec5760405162461bcd60e51b815260040161029090610d45565b6001600160a01b03811660009081526001602052604090205460ff16156104255760405162461bcd60e51b815260040161029090610d7c565b6001600160a01b0381166000818152600160208190526040808320805460ff1916909217909155517f76cf2ef8649f9b564704943e571ccde2d4cc2a3c4adc6d29d4998ae38b5597a79190a250565b61047c6109e6565b60008281526002602052604090206004015460ff166104ad5760405162461bcd60e51b815260040161029090610e75565b600082815260026020818152604092839020835160a08101855281546001600160a01b03168152600182015492810192909252918201805491938401916104f390610fa1565b80601f016020809104026020016040519081016040528092919081815260200182805461051f90610fa1565b801561056c5780601f106105415761010080835404028352916020019161056c565b820191906000526020600020905b81548152906001019060200180831161054f57829003601f168201915b5050505050815260200160038201805461058590610fa1565b80601f01602080910402602001604051908101604052809291908181526020018280546105b190610fa1565b80156105fe5780601f106105d3576101008083540402835291602001916105fe565b820191906000526020600020905b8154815290600101906020018083116105e157829003601f168201915b50505091835250506004919091015460ff16151560209091015292915050565b6001600160a01b031660009081526001602052604090205460ff1690565b6000546001600160a01b031681565b60045481565b60008181526002602052604090206004015460609060ff166106855760405162461bcd60e51b815260040161029090610e75565b600082815260026020526040902060030180546106a190610fa1565b80601f01602080910402602001604051908101604052809291908181526020018280546106cd90610fa1565b801561071a5780601f106106ef5761010080835404028352916020019161071a565b820191906000526020600020905b8154815290600101906020018083116106fd57829003601f168201915b50505050509050919050565b3360009081526001602052604081205460ff166107555760405162461bcd60e51b815260040161029090610e16565b60055460ff16156107785760405162461bcd60e51b815260040161029090610e4d565b6005805460ff19166001179055815160101180159061079a5750610200825111155b6107b65760405162461bcd60e51b815260040161029090610dea565b60008333426004546040516020016107d19493929190610c0d565b60408051808303601f19018152828252805160209182012060a084018352338452428285019081528484018981526060860189905260016080870181905260008481526002808752969020875181546001600160a01b0319166001600160a01b0390911617815592519083015551805192965090936108569390850192910190610a20565b5060608201518051610872916003840191602090910190610a20565b50608091909101516004918201805460ff19169115159190911790553360009081526003602090815260408220805460018101825590835290822001839055815491906108be83610fdc565b90915550503360009081526001602081905260408220018054916108e183610fdc565b9190505550336001600160a01b0316817faa0f2661e64967e77af4a43c2aecca8209a9f6c68944c4243f95461fadab82958686604051610922929190610ce0565b60405180910390a36005805460ff191690559392505050565b6000546001600160a01b031633146109655760405162461bcd60e51b815260040161029090610d45565b6001600160a01b03811661098b5760405162461bcd60e51b815260040161029090610e9d565b600080546040516001600160a01b03808516939216917f8be0079c531659141344cd1fd0a4f28419497f9722a3daafe3b4186f6b6457e091a3600080546001600160a01b0319166001600160a01b0392909216919091179055565b6040518060a0016040528060006001600160a01b031681526020016000815260200160608152602001606081526020016000151581525090565b828054610a2c90610fa1565b90600052602060002090601f016020900481019282610a4e5760008555610a94565b82601f10610a6757805160ff1916838001178555610a94565b82800160010185558215610a94579182015b82811115610a94578251825591602001919060010190610a79565b50610aa0929150610aa4565b5090565b5b80821115610aa05760008155600101610aa5565b600082601f830112610ac9578081fd5b813567ffffffffffffffff80821115610ae457610ae4611003565b604051601f8301601f191681016020018281118282101715610b0857610b08611003565b604052828152848301602001861015610b1f578384fd5b82602086016020830137918201602001929092529392505050565b600060208284031215610b4b578081fd5b81356001600160a01b0381168114610b61578182fd5b9392505050565b600060208284031215610b79578081fd5b5035919050565b60008060408385031215610b92578081fd5b823567ffffffffffffffff80821115610ba9578283fd5b610bb586838701610ab9565b93506020850135915080821115610bca578283fd5b50610bd785828601610ab9565b9150509250929050565b60008151808452610bf9816020860160208601610f71565b601f01601f19169290920160200192915050565b60008551610c1f818460208a01610f71565b60609590951b6bffffffffffffffffffffffff1916919094019081526014810192909252603482015260540192915050565b6001600160a01b0391909116815260200190565b6020808252825182820181905260009190848201906040850190845b81811015610c9d57835183529284019291840191600101610c81565b50909695505050505050565b901515815260200190565b9115158252602082015260400190565b90815260200190565b600060208252610b616020830184610be1565b600060408252610cf36040830185610be1565b8281036020840152610d058185610be1565b95945050505050565b60208082526019908201527f4e6f7420617574686f72697a656420746f206172636869766500000000000000604082015260600190565b6020808252601a908201527f4e6f7420617574686f72697a65643a204f776e6572206f6e6c79000000000000604082015260600190565b6020808252601e908201527f4164647265737320697320616c726561647920616e2075706c6f616465720000604082015260600190565b6020808252601a908201527f41646472657373206973206e6f7420616e2075706c6f61646572000000000000604082015260600190565b602080825260129082015271092dcecc2d8d2c840d6caf240d8cadccee8d60731b604082015260600190565b6020808252601d908201527f4e6f7420617574686f72697a65643a2055706c6f61646572206f6e6c79000000604082015260600190565b6020808252600e908201526d1499595b9d1c985b9d0818d85b1b60921b604082015260600190565b6020808252600e908201526d119a5b19481b9bdd08199bdd5b9960921b604082015260600190565b60208082526019908201527f496e76616c6964206e6577206f776e6572206164647265737300000000000000604082015260600190565b602080825260159082015274119a5b1948185b1c9958591e48185c98da1a5d9959605a1b604082015260600190565b60006020825260018060a01b03835116602083015260208301516040830152604083015160a06060840152610f3b60c0840182610be1565b90506060840151601f19848303016080850152610f588282610be1565b9150506080840151151560a08401528091505092915050565b60005b83811015610f8c578181015183820152602001610f74565b83811115610f9b576000848401525b50505050565b600281046001821680610fb557607f821691505b60208210811415610fd657634e487b7160e01b600052602260045260246000fd5b50919050565b6000600019821415610ffc57634e487b7160e01b81526011600452602481fd5b5060010190565b634e487b7160e01b600052604160045260246000fdfea2646970667358221220b75373c9b868390d5b0749e79d28c9a6ab8814c4a6ac293059d06625f3b9578264736f6c63430008000033",
  "immutableReferences": {},
  "source": "// SPDX-License-Identifier: MIT\r\npragma solidity ^0.8.0;\r\n\r\ncontract FileEncryptionRegistry {\r\n    // Structs\r\n    struct FileMetadata {\r\n        address uploader;\r\n        uint256 uploadTimestamp;\r\n        string fileName;\r\n        string encryptionKey;\r\n        bool isActive;\r\n    }\r\n\r\n    struct UserProfile {\r\n        bool isUploader;\r\n        uint256 totalFilesUploaded;\r\n    }\r\n\r\n    // State Variables\r\n    address public owner;\r\n    mapping(address => UserProfile) public userProfiles;\r\n    mapping(bytes32 => FileMetadata) private fileRegistry;\r\n    mapping(address => bytes32[]) private userFiles;\r\n    uint256 public totalFiles;\r\n\r\n    // Reentrancy guard\r\n    bool private locked;\r\n\r\n    // Events\r\n    event OwnershipTransferred(\r\n        address indexed previousOwner, \r\n        address indexed newOwner\r\n    );\r\n    event UploaderAdded(address indexed uploader);\r\n    event UploaderRemoved(address indexed uploader);\r\n    event FileRegistered(\r\n        bytes32 indexed fileId, \r\n        address indexed uploader, \r\n        string fileName,\r\n        string encryptionKey\r\n    );\r\n    event FileArchived(bytes32 indexed fileId);\r\n\r\n    // Modifiers\r\n    modifier onlyOwner() {\r\n        require(msg.sender == owner, \"Not authorized: Owner only\");\r\n        _;\r\n    }\r\n\r\n    modifier onlyUploader() {\r\n        require(\r\n            userProfiles[msg.sender].isUploader, \r\n            \"Not authorized: Uploader only\"\r\n        );\r\n        _;\r\n    }\r\n\r\n    // Corrected reentrancy guard modifier\r\n    modifier noReentrant() {\r\n        require(!locked, \"Reentrant call\");\r\n        locked = true;\r\n        _;\r\n        locked = false;\r\n    }\r\n\r\n    // Constructor\r\n    constructor() {\r\n        owner = msg.sender;\r\n        userProfiles[msg.sender] = UserProfile({\r\n            isUploader: true,\r\n            totalFilesUploaded: 0\r\n        });\r\n    }\r\n\r\n    // Owner Functions\r\n    function transferOwnership(address newOwner) public onlyOwner {\r\n        require(newOwner != address(0), \"Invalid new owner address\");\r\n        \r\n        emit OwnershipTransferred(owner, newOwner);\r\n        owner = newOwner;\r\n    }\r\n\r\n    function addUploader(address uploaderAddress) public onlyOwner {\r\n        require(\r\n            !userProfiles[uploaderAddress].isUploader, \r\n            \"Address is already an uploader\"\r\n        );\r\n\r\n        userProfiles[uploaderAddress].isUploader = true;\r\n        emit UploaderAdded(uploaderAddress);\r\n    }\r\n\r\n    function removeUploader(address uploaderAddress) public onlyOwner {\r\n        require(\r\n            userProfiles[uploaderAddress].isUploader, \r\n            \"Address is not an uploader\"\r\n        );\r\n\r\n        userProfiles[uploaderAddress].isUploader = false;\r\n        emit UploaderRemoved(uploaderAddress);\r\n    }\r\n\r\n    // File Management Functions\r\n    function registerFile(\r\n        string memory _fileName,\r\n        string memory _encryptionKey\r\n    ) public onlyUploader noReentrant returns (bytes32) {\r\n        // Validate key length\r\n        require(bytes(_encryptionKey).length >= 16 && bytes(_encryptionKey).length <= 512, \"Invalid key length\");\r\n\r\n        // Generate unique file identifier\r\n        bytes32 fileId = keccak256(abi.encodePacked(\r\n            _fileName, \r\n            msg.sender, \r\n            block.timestamp,\r\n            totalFiles\r\n        ));\r\n\r\n        // Create file metadata\r\n        fileRegistry[fileId] = FileMetadata({\r\n            uploader: msg.sender,\r\n            uploadTimestamp: block.timestamp,\r\n            fileName: _fileName,\r\n            encryptionKey: _encryptionKey,\r\n            isActive: true\r\n        });\r\n\r\n        // Track user's files\r\n        userFiles[msg.sender].push(fileId);\r\n\r\n        // Increment total files and user's file count\r\n        totalFiles++;\r\n        userProfiles[msg.sender].totalFilesUploaded++;\r\n\r\n        // Emit event with the encryption key\r\n        emit FileRegistered(fileId, msg.sender, _fileName, _encryptionKey);\r\n\r\n        return fileId;\r\n    }\r\n\r\n    function archiveFile(bytes32 _fileId) public {\r\n        FileMetadata storage file = fileRegistry[_fileId];\r\n        \r\n        // Only file uploader or owner can archive\r\n        require(\r\n            msg.sender == file.uploader || msg.sender == owner, \r\n            \"Not authorized to archive\"\r\n        );\r\n        require(file.isActive, \"File already archived\");\r\n\r\n        file.isActive = false;\r\n        emit FileArchived(_fileId);\r\n    }\r\n\r\n    // View Functions\r\n    function getFileMetadata(bytes32 _fileId) \r\n        public \r\n        view \r\n        returns (FileMetadata memory) \r\n    {\r\n        require(fileRegistry[_fileId].isActive, \"File not found\");\r\n        return fileRegistry[_fileId];\r\n    }\r\n\r\n    function getUserFiles() public view returns (bytes32[] memory) {\r\n        return userFiles[msg.sender];\r\n    }\r\n\r\n    function isUploader(address _address) public view returns (bool) {\r\n        return userProfiles[_address].isUploader;\r\n    }\r\n    function getEncryptionKey(bytes32 _fileId) public view returns (string memory) {\r\n    require(fileRegistry[_fileId].isActive, \"File not found\");\r\n    return fileRegistry[_fileId].encryptionKey;\r\n}\r\n}",
  "sourcePath": "C:\\Users\\ezzin\\OneDrive\\Documents\\GitHub\\pcd-1\\blockchain\\contracts\\FileEncryptionRegistry.sol",
  "compiler": {
    "name": "solc",
    "version": "0.8.0+commit.c7dfd78e.Emscripten.clang"
  },
  "schemaVersion": "3.4.16",
  "updatedAt": "2025-04-28T16:00:14.066Z",
  "networkType": "ethereum",
  "devdoc": {
    "kind": "dev",
    "methods": {},
    "version": 1
  },
  "userdoc": {
    "kind": "user",
    "methods": {},
    "version": 1
  }
}