{
  "contractName": "FileEncryptionRegistry",
  "abi": [
    {
      "inputs": [],
      "stateMutability": "nonpayable",
      "type": "constructor"
    },
    {
      "anonymous": false,
      "inputs": [
        {
          "indexed": true,
          "internalType": "bytes32",
          "name": "fileId",
          "type": "bytes32"
        }
      ],
      "name": "FileArchived",
      "type": "event"
    },
    {
      "anonymous": false,
      "inputs": [
        {
          "indexed": true,
          "internalType": "bytes32",
          "name": "fileId",
          "type": "bytes32"
        },
        {
          "indexed": true,
          "internalType": "address",
          "name": "uploader",
          "type": "address"
        },
        {
          "indexed": false,
          "internalType": "string",
          "name": "fileName",
          "type": "string"
        }
      ],
      "name": "FileRegistered",
      "type": "event"
    },
    {
      "anonymous": false,
      "inputs": [
        {
          "indexed": true,
          "internalType": "address",
          "name": "previousOwner",
          "type": "address"
        },
        {
          "indexed": true,
          "internalType": "address",
          "name": "newOwner",
          "type": "address"
        }
      ],
      "name": "OwnershipTransferred",
      "type": "event"
    },
    {
      "anonymous": false,
      "inputs": [
        {
          "indexed": true,
          "internalType": "address",
          "name": "uploader",
          "type": "address"
        }
      ],
      "name": "UploaderAdded",
      "type": "event"
    },
    {
      "anonymous": false,
      "inputs": [
        {
          "indexed": true,
          "internalType": "address",
          "name": "uploader",
          "type": "address"
        }
      ],
      "name": "UploaderRemoved",
      "type": "event"
    },
    {
      "inputs": [],
      "name": "owner",
      "outputs": [
        {
          "internalType": "address",
          "name": "",
          "type": "address"
        }
      ],
      "stateMutability": "view",
      "type": "function",
      "constant": true
    },
    {
      "inputs": [],
      "name": "totalFiles",
      "outputs": [
        {
          "internalType": "uint256",
          "name": "",
          "type": "uint256"
        }
      ],
      "stateMutability": "view",
      "type": "function",
      "constant": true
    },
    {
      "inputs": [
        {
          "internalType": "address",
          "name": "",
          "type": "address"
        }
      ],
      "name": "userProfiles",
      "outputs": [
        {
          "internalType": "bool",
          "name": "isUploader",
          "type": "bool"
        },
        {
          "internalType": "uint256",
          "name": "totalFilesUploaded",
          "type": "uint256"
        }
      ],
      "stateMutability": "view",
      "type": "function",
      "constant": true
    },
    {
      "inputs": [
        {
          "internalType": "address",
          "name": "newOwner",
          "type": "address"
        }
      ],
      "name": "transferOwnership",
      "outputs": [],
      "stateMutability": "nonpayable",
      "type": "function"
    },
    {
      "inputs": [
        {
          "internalType": "address",
          "name": "uploaderAddress",
          "type": "address"
        }
      ],
      "name": "addUploader",
      "outputs": [],
      "stateMutability": "nonpayable",
      "type": "function"
    },
    {
      "inputs": [
        {
          "internalType": "address",
          "name": "uploaderAddress",
          "type": "address"
        }
      ],
      "name": "removeUploader",
      "outputs": [],
      "stateMutability": "nonpayable",
      "type": "function"
    },
    {
      "inputs": [
        {
          "internalType": "string",
          "name": "_fileName",
          "type": "string"
        },
        {
          "internalType": "string",
          "name": "_encryptionKeyHash",
          "type": "string"
        }
      ],
      "name": "registerFile",
      "outputs": [
        {
          "internalType": "bytes32",
          "name": "",
          "type": "bytes32"
        }
      ],
      "stateMutability": "nonpayable",
      "type": "function"
    },
    {
      "inputs": [
        {
          "internalType": "bytes32",
          "name": "_fileId",
          "type": "bytes32"
        }
      ],
      "name": "archiveFile",
      "outputs": [],
      "stateMutability": "nonpayable",
      "type": "function"
    },
    {
      "inputs": [
        {
          "internalType": "bytes32",
          "name": "_fileId",
          "type": "bytes32"
        }
      ],
      "name": "getFileMetadata",
      "outputs": [
        {
          "components": [
            {
              "internalType": "address",
              "name": "uploader",
              "type": "address"
            },
            {
              "internalType": "uint256",
              "name": "uploadTimestamp",
              "type": "uint256"
            },
            {
              "internalType": "string",
              "name": "fileName",
              "type": "string"
            },
            {
              "internalType": "string",
              "name": "encryptionKeyHash",
              "type": "string"
            },
            {
              "internalType": "bool",
              "name": "isActive",
              "type": "bool"
            }
          ],
          "internalType": "struct FileEncryptionRegistry.FileMetadata",
          "name": "",
          "type": "tuple"
        }
      ],
      "stateMutability": "view",
      "type": "function",
      "constant": true
    },
    {
      "inputs": [],
      "name": "getUserFiles",
      "outputs": [
        {
          "internalType": "bytes32[]",
          "name": "",
          "type": "bytes32[]"
        }
      ],
      "stateMutability": "view",
      "type": "function",
      "constant": true
    },
    {
      "inputs": [
        {
          "internalType": "address",
          "name": "_address",
          "type": "address"
        }
      ],
      "name": "isUploader",
      "outputs": [
        {
          "internalType": "bool",
          "name": "",
          "type": "bool"
        }
      ],
      "stateMutability": "view",
      "type": "function",
      "constant": true
    }
  ],
  "bytecode": "0x608060405234801561001057600080fd5b50600080546001600160a01b03191633908117825560408051808201825260018082526020808301868152948652819052919093209251835490151560ff199091161783559051910155610ec3806100696000396000f3fe608060405234801561001057600080fd5b50600436106100a95760003560e01c806365f353711161007157806365f35371146101285780636db5426a146101485780638da5cb5b1461016857806392cf05571461017d578063ed79172414610192578063f2fde38b146101a5576100a9565b806311942989146100ae5780632d0a304a146100cc578063332d56d7146100e157806339a883071461010257806348bbde5d14610115575b600080fd5b6100b66101b8565b6040516100c39190610b33565b60405180910390f35b6100df6100da366004610a36565b610219565b005b6100f46100ef366004610a08565b6102cd565b6040516100c3929190610b82565b6100df610110366004610a08565b6102ec565b6100df610123366004610a08565b610397565b61013b610136366004610a36565b610449565b6040516100c39190610d77565b61015b610156366004610a08565b6105f3565b6040516100c39190610b77565b610170610611565b6040516100c39190610b1f565b610185610620565b6040516100c39190610b92565b6101856101a0366004610a4e565b610626565b6100df6101b3366004610a08565b610809565b3360009081526003602090815260409182902080548351818402810184019094528084526060939283018282801561020f57602002820191906000526020600020905b8154815260200190600101908083116101fb575b5050505050905090565b600081815260026020526040902080546001600160a01b031633148061024957506000546001600160a01b031633145b61026e5760405162461bcd60e51b815260040161026590610bae565b60405180910390fd5b600481015460ff166102925760405162461bcd60e51b815260040161026590610d48565b60048101805460ff1916905560405182907fcd4ef02f39239652e86ed1ae64bad7684e5447b20c7ee94ba7390e7cb3bb665990600090a25050565b6001602081905260009182526040909120805491015460ff9091169082565b6000546001600160a01b031633146103165760405162461bcd60e51b815260040161026590610be5565b6001600160a01b03811660009081526001602052604090205460ff1661034e5760405162461bcd60e51b815260040161026590610c53565b6001600160a01b038116600081815260016020526040808220805460ff19169055517f861410af945cb28019ed2329ed3a2f839d1693d69fbbd569522dafade784e7d09190a250565b6000546001600160a01b031633146103c15760405162461bcd60e51b815260040161026590610be5565b6001600160a01b03811660009081526001602052604090205460ff16156103fa5760405162461bcd60e51b815260040161026590610c1c565b6001600160a01b0381166000818152600160208190526040808320805460ff1916909217909155517f76cf2ef8649f9b564704943e571ccde2d4cc2a3c4adc6d29d4998ae38b5597a79190a250565b6104516108b4565b60008281526002602052604090206004015460ff166104825760405162461bcd60e51b815260040161026590610ce9565b600082815260026020818152604092839020835160a08101855281546001600160a01b03168152600182015492810192909252918201805491938401916104c890610e15565b80601f01602080910402602001604051908101604052809291908181526020018280546104f490610e15565b80156105415780601f1061051657610100808354040283529160200191610541565b820191906000526020600020905b81548152906001019060200180831161052457829003601f168201915b5050505050815260200160038201805461055a90610e15565b80601f016020809104026020016040519081016040528092919081815260200182805461058690610e15565b80156105d35780601f106105a8576101008083540402835291602001916105d3565b820191906000526020600020905b8154815290600101906020018083116105b657829003601f168201915b50505091835250506004919091015460ff16151560209091015292915050565b6001600160a01b031660009081526001602052604090205460ff1690565b6000546001600160a01b031681565b60045481565b3360009081526001602052604081205460ff166106555760405162461bcd60e51b815260040161026590610c8a565b60055460ff16156106785760405162461bcd60e51b815260040161026590610cc1565b6005805460ff191660011790556004546040516000916106a19186913391429190602001610adb565b60408051808303601f19018152828252805160209182012060a084018352338452428285019081528484018981526060860189905260016080870181905260008481526002808752969020875181546001600160a01b0319166001600160a01b03909116178155925190830155518051929650909361072693908501929101906108ee565b50606082015180516107429160038401916020909101906108ee565b50608091909101516004918201805460ff191691151591909117905533600090815260036020908152604082208054600181018255908352908220018390558154919061078e83610e50565b90915550503360009081526001602081905260408220018054916107b183610e50565b9190505550336001600160a01b0316817f1064d34f5bd5e8ffb5b4990f469ecccf48d50fd57be72c3c8b177a00995ade43866040516107f09190610b9b565b60405180910390a36005805460ff191690559392505050565b6000546001600160a01b031633146108335760405162461bcd60e51b815260040161026590610be5565b6001600160a01b0381166108595760405162461bcd60e51b815260040161026590610d11565b600080546040516001600160a01b03808516939216917f8be0079c531659141344cd1fd0a4f28419497f9722a3daafe3b4186f6b6457e091a3600080546001600160a01b0319166001600160a01b0392909216919091179055565b6040518060a0016040528060006001600160a01b031681526020016000815260200160608152602001606081526020016000151581525090565b8280546108fa90610e15565b90600052602060002090601f01602090048101928261091c5760008555610962565b82601f1061093557805160ff1916838001178555610962565b82800160010185558215610962579182015b82811115610962578251825591602001919060010190610947565b5061096e929150610972565b5090565b5b8082111561096e5760008155600101610973565b600082601f830112610997578081fd5b813567ffffffffffffffff808211156109b2576109b2610e77565b604051601f8301601f1916810160200182811182821017156109d6576109d6610e77565b6040528281528483016020018610156109ed578384fd5b82602086016020830137918201602001929092529392505050565b600060208284031215610a19578081fd5b81356001600160a01b0381168114610a2f578182fd5b9392505050565b600060208284031215610a47578081fd5b5035919050565b60008060408385031215610a60578081fd5b823567ffffffffffffffff80821115610a77578283fd5b610a8386838701610987565b93506020850135915080821115610a98578283fd5b50610aa585828601610987565b9150509250929050565b60008151808452610ac7816020860160208601610de5565b601f01601f19169290920160200192915050565b60008551610aed818460208a01610de5565b60609590951b6bffffffffffffffffffffffff1916919094019081526014810192909252603482015260540192915050565b6001600160a01b0391909116815260200190565b6020808252825182820181905260009190848201906040850190845b81811015610b6b57835183529284019291840191600101610b4f565b50909695505050505050565b901515815260200190565b9115158252602082015260400190565b90815260200190565b600060208252610a2f6020830184610aaf565b60208082526019908201527f4e6f7420617574686f72697a656420746f206172636869766500000000000000604082015260600190565b6020808252601a908201527f4e6f7420617574686f72697a65643a204f776e6572206f6e6c79000000000000604082015260600190565b6020808252601e908201527f4164647265737320697320616c726561647920616e2075706c6f616465720000604082015260600190565b6020808252601a908201527f41646472657373206973206e6f7420616e2075706c6f61646572000000000000604082015260600190565b6020808252601d908201527f4e6f7420617574686f72697a65643a2055706c6f61646572206f6e6c79000000604082015260600190565b6020808252600e908201526d1499595b9d1c985b9d0818d85b1b60921b604082015260600190565b6020808252600e908201526d119a5b19481b9bdd08199bdd5b9960921b604082015260600190565b60208082526019908201527f496e76616c6964206e6577206f776e6572206164647265737300000000000000604082015260600190565b602080825260159082015274119a5b1948185b1c9958591e48185c98da1a5d9959605a1b604082015260600190565b60006020825260018060a01b03835116602083015260208301516040830152604083015160a06060840152610daf60c0840182610aaf565b90506060840151601f19848303016080850152610dcc8282610aaf565b9150506080840151151560a08401528091505092915050565b60005b83811015610e00578181015183820152602001610de8565b83811115610e0f576000848401525b50505050565b600281046001821680610e2957607f821691505b60208210811415610e4a57634e487b7160e01b600052602260045260246000fd5b50919050565b6000600019821415610e7057634e487b7160e01b81526011600452602481fd5b5060010190565b634e487b7160e01b600052604160045260246000fdfea26469706673582212201fc12b22d405cde5ec0f9fd29253017e31d07776701178fda8a4defd96dd432464736f6c63430008000033",
  "immutableReferences": {},
  "source": "// SPDX-License-Identifier: MIT\r\npragma solidity ^0.8.0;\r\n\r\ncontract FileEncryptionRegistry {\r\n    // Structs\r\n    struct FileMetadata {\r\n        address uploader;\r\n        uint256 uploadTimestamp;\r\n        string fileName;\r\n        string encryptionKeyHash;\r\n        bool isActive;\r\n    }\r\n\r\n    struct UserProfile {\r\n        bool isUploader;\r\n        uint256 totalFilesUploaded;\r\n    }\r\n\r\n    // State Variables\r\n    address public owner;\r\n    mapping(address => UserProfile) public userProfiles;\r\n    mapping(bytes32 => FileMetadata) private fileRegistry;\r\n    mapping(address => bytes32[]) private userFiles;\r\n    uint256 public totalFiles;\r\n\r\n    // Events\r\n    event OwnershipTransferred(\r\n        address indexed previousOwner, \r\n        address indexed newOwner\r\n    );\r\n    event UploaderAdded(address indexed uploader);\r\n    event UploaderRemoved(address indexed uploader);\r\n    event FileRegistered(\r\n        bytes32 indexed fileId, \r\n        address indexed uploader, \r\n        string fileName\r\n    );\r\n    event FileArchived(bytes32 indexed fileId);\r\n\r\n    // Modifiers\r\n    modifier onlyOwner() {\r\n        require(msg.sender == owner, \"Not authorized: Owner only\");\r\n        _;\r\n    }\r\n\r\n    modifier onlyUploader() {\r\n        require(\r\n            userProfiles[msg.sender].isUploader, \r\n            \"Not authorized: Uploader only\"\r\n        );\r\n        _;\r\n    }\r\n\r\n    modifier noReentrant() {\r\n        require(!locked, \"Reentrant call\");\r\n        locked = true;\r\n        _;\r\n        locked = false;\r\n    }\r\n\r\n    // Reentrancy guard\r\n    bool private locked;\r\n\r\n    // Constructor\r\n    constructor() {\r\n        owner = msg.sender;\r\n        userProfiles[msg.sender] = UserProfile({\r\n            isUploader: true,\r\n            totalFilesUploaded: 0\r\n        });\r\n    }\r\n\r\n    // Owner Functions\r\n    function transferOwnership(address newOwner) public onlyOwner {\r\n        require(newOwner != address(0), \"Invalid new owner address\");\r\n        \r\n        emit OwnershipTransferred(owner, newOwner);\r\n        owner = newOwner;\r\n    }\r\n\r\n    function addUploader(address uploaderAddress) public onlyOwner {\r\n        require(\r\n            !userProfiles[uploaderAddress].isUploader, \r\n            \"Address is already an uploader\"\r\n        );\r\n\r\n        userProfiles[uploaderAddress].isUploader = true;\r\n        emit UploaderAdded(uploaderAddress);\r\n    }\r\n\r\n    function removeUploader(address uploaderAddress) public onlyOwner {\r\n        require(\r\n            userProfiles[uploaderAddress].isUploader, \r\n            \"Address is not an uploader\"\r\n        );\r\n\r\n        userProfiles[uploaderAddress].isUploader = false;\r\n        emit UploaderRemoved(uploaderAddress);\r\n    }\r\n\r\n    // File Management Functions\r\n    function registerFile(\r\n        string memory _fileName,\r\n        string memory _encryptionKeyHash\r\n    ) public onlyUploader noReentrant returns (bytes32) {\r\n        // Generate unique file identifier\r\n        bytes32 fileId = keccak256(abi.encodePacked(\r\n            _fileName, \r\n            msg.sender, \r\n            block.timestamp,\r\n            totalFiles\r\n        ));\r\n\r\n        // Create file metadata\r\n        fileRegistry[fileId] = FileMetadata({\r\n            uploader: msg.sender,\r\n            uploadTimestamp: block.timestamp,\r\n            fileName: _fileName,\r\n            encryptionKeyHash: _encryptionKeyHash,\r\n            isActive: true\r\n        });\r\n\r\n        // Track user's files\r\n        userFiles[msg.sender].push(fileId);\r\n\r\n        // Increment total files and user's file count\r\n        totalFiles++;\r\n        userProfiles[msg.sender].totalFilesUploaded++;\r\n\r\n        // Emit event\r\n        emit FileRegistered(fileId, msg.sender, _fileName);\r\n\r\n        return fileId;\r\n    }\r\n\r\n    function archiveFile(bytes32 _fileId) public {\r\n        FileMetadata storage file = fileRegistry[_fileId];\r\n        \r\n        // Only file uploader or owner can archive\r\n        require(\r\n            msg.sender == file.uploader || msg.sender == owner, \r\n            \"Not authorized to archive\"\r\n        );\r\n        require(file.isActive, \"File already archived\");\r\n\r\n        file.isActive = false;\r\n        emit FileArchived(_fileId);\r\n    }\r\n\r\n    // View Functions\r\n    function getFileMetadata(bytes32 _fileId) \r\n        public \r\n        view \r\n        returns (FileMetadata memory) \r\n    {\r\n        require(fileRegistry[_fileId].isActive, \"File not found\");\r\n        return fileRegistry[_fileId];\r\n    }\r\n\r\n    function getUserFiles() public view returns (bytes32[] memory) {\r\n        return userFiles[msg.sender];\r\n    }\r\n\r\n    function isUploader(address _address) public view returns (bool) {\r\n        return userProfiles[_address].isUploader;\r\n    }\r\n}",
  "sourcePath": "C:\\Users\\ezzin\\OneDrive\\Documents\\GitHub\\pcd-1\\blockchain\\contracts\\FileEncryptionRegistry.sol",
  "compiler": {
    "name": "solc",
    "version": "0.8.0+commit.c7dfd78e.Emscripten.clang"
  },
  "schemaVersion": "3.4.16",
  "updatedAt": "2025-04-25T21:51:26.602Z",
  "networkType": "ethereum",
  "devdoc": {
    "kind": "dev",
    "methods": {},
    "version": 1
  },
  "userdoc": {
    "kind": "user",
    "methods": {},
    "version": 1
  }
}